:020000040800F2
:10000000400E00209D010008CF230008AB2000080F
:10001000CD230008A9020008E52B0008000000001D
:10002000000000000000000000000000AF01000818
:10003000A503000800000000B3010008B501000896
:10004000B7010008B7010008B7010008B7010008B0
:10005000B7010008B7010008B7010008B7010008A0
:10006000B7010008B7010008B7010008C502000881
:10007000D1020008B7010008DD020008B70100083E
:10008000E9020008B7010008B7010008B90200083A
:10009000AD020008B7010008B7010008B701000869
:1000A000B7010008B7010008B7010008B701000850
:1000B000B7010008112600081D260008B701000836
:1000C000B7010008B7010008B7010008B701000830
:1000D000B7010008B7010008CD2B0008D92B000894
:1000E000B7010008B7010008B7010008B701000810
:1000F000B7010008B7010008B7010008F5020008C1
:10010000B7010008B7010008B7010008B7010008EF
:10011000B7010008F928000829260008352600083C
:10012000B7010008B7010008B7010008B7010008CF
:10013000B7010008B7010008B7010008B7010008BF
:10014000B7010008B7010008B7010008B7010008AF
:10015000B7010008B7010008B7010008B70100089F
:10016000B7010008B7010008B7010008B70100088F
:10017000B7010008B7010008B7010008000000003F
:10018000B7010008B7010008DFF80CD000F07AF8DA
:1001900000480047512C0008400E002006488047C8
:1001A00006480047FEE7FEE7FEE7FEE7FEE7FEE75C
:1001B000FEE7FEE7FEE7FEE7F525000889010008F7
:1001C0002DE9F05F0546002092469B46884606468C
:1001D000814640241BE0284641464746224600F01F
:1001E00041F853465A46C01A914110D31146184659
:1001F000224600F028F82D1A67EB01084F462246E8
:100200000120002100F01FF817EB00094E41201ECD
:10021000A4F10104DFDC484631462A464346BDE8E6
:10022000F09FD2B201E000F8012B491EFBD27047CB
:100230000022F6E710B513460A4604461946FFF7B2
:10024000F0FF204610BD202A04DB203A00FA02F11C
:10025000002070479140C2F1200320FA03F31943B4
:1002600090407047202A04DB203A21FA02F0002156
:10027000704721FA02F3D040C2F1200291400843B6
:1002800019467047064C074D06E0E06840F0010350
:1002900094E8070098471034AC42F6D3FFF778FF94
:1002A000A82E0008C82E0008FEE70000014800F054
:1002B00062BA000074060020014800F05CBA000039
:1002C00074060020014800F08FBC00001C080020CC
:1002D000014800F089BC00003C090020014800F002
:1002E00083BC00009C090020014800F07DBC000098
:1002F000DC080020014800F077BC00007C080020EA
:1003000001681823CAB2103AB2FBF3F2054B6FF33F
:100310000901032A9B5CC36500D9091D8165084654
:1003200070470000862E000810B5014600208B693A
:100330008A6A4FF0C07453B1B3F5005F15D072B143
:10034000012A0CD0022A0AD0032A09D104E01AB1EA
:10035000012A06D0022A03D1C96AC90100D50120A9
:1003600010BDC96AA142FAD010BD002AF7D0012AF7
:10037000F2D0022AF3D0032AF3D010BD30B50468BE
:10038000256825F480252560046863608368402B18
:10039000036803D099600068C26030BD9A6000684D
:1003A000C16030BD7047704710B58389C3810A882A
:1003B000F1EE040A52BA82814C88D31A64BA0480DE
:1003C0008C88B3F5805F64BA00EE104AB8EE400A3C
:1003D00020EE200ADFED0B0A20EE200A80ED010A54
:1003E00089798172416901DD491E03E013F5805F5F
:1003F00001DA491C416102EB4131028A891A8161AB
:1004000010BD000000008038098849BA818101824E
:10041000704700002DE9F0411C4C24251C4EA069BA
:1004200090FBF5F000EE100AD6ED000A1948B8EE80
:10043000C00AF8EEE00A02F03DFCB4F90000154FE6
:1004400000EE100A3846D7ED0F0AB8EEC00A02F0E7
:1004500031FCA06CD6ED010A90FBF5F000EE100A1D
:1004600007F16800F8EEE00AB8EEC00A054602F0AF
:1004700021FCB4F93000D7ED290A00EE100A284615
:10048000BDE8F041B8EEC00A02F014BC340100200F
:10049000080000209401002008B5002000900A48C0
:1004A000002390ED290ABDEEC00A10EE101A90ED5F
:1004B0000F0A0AB2BDEEC00A10EE100A01B20348DC
:1004C00001F0E5FF08BD0000940100207406002043
:1004D00070B5134D0321B5F9040001F0D1FF00EB15
:1004E000800040004FF4257690FBF6F00D4C21681B
:1004F00008442060B5F90600032101F0C1FF00EBBC
:10050000400090FBF6F06168084440F252316060B0
:10051000884203DB40F2AA51884200DD616070BD71
:100520002C0000200800002010B5DFED200AB2EEFC
:10053000000A2DED028B64239FED1B8A41F270723D
:100540000321B0EE481A1A4801F042FF1848B7EEEE
:10055000081ADFED180AB2EE080A4FF4FA7343F6F0
:1005600098220321D03001F033FF1148B0EE481A31
:10057000F0EE480A9FED100A3C230F220321683059
:1005800001F026FFB0EE481ABDEC028BF1EE000A36
:10059000BDE810409FED090A45F6D81347F23052E6
:1005A0000321074801F014BF000000000AD7233CD4
:1005B00094010020CDCCCC3DCDCC4C3D0000484337
:1005C000CC020020F0B590F820500468A468012DFA
:1005D00005D0022D03D0416A41F4802153E014F08C
:1005E000406F01D1E5004BD5C4F30164022C03D95F
:1005F000416A41F4000146E00125A5401D608D6877
:100600004FF4C0739DB1CE6835434E6845EAC605C8
:10061000066803EB0417F5514FF4C275076805EB44
:1006200004150E697E51097D012905D009E00E8867
:10063000CD6845EA4655EBE701684E5946F48076A9
:100640004E511179D2F805504FF4C67641EA05258E
:10065000016806EB04168D511178D2F801204FF491
:10066000C47541EA0221026805EB04155151006886
:1006700003EB0411425842F0010242500020F0BD49
:10068000416A41F4001141620120F0BD704730B56C
:1006900090F82040012C05D0022C03D0416A41F48F
:1006A00080215DE00468002955D02469A40754D056
:1006B0004FF4D874056804EB01142D5915F00405A6
:1006C000956005682D594ED0ED08556005682C5988
:1006D00004F00204D4604FF4DA74056804EB0114EA
:1006E0002D5905F00F05156105682D59C5F307252E
:1006F000956105682C59240C54614FF4DC72046830
:1007000002EB0112A4581C700468A458240A5C70FF
:100710000468A458240C9C700468A258120EDA7065
:100720004FF4DE72046802EB0112A4581C710468D5
:10073000A458240A5C710468A458240C9C710468B1
:10074000A258120EDA71006881B1016941F02001EE
:100750000161002030BDE468A8E7416A41F400115E
:100760004162012030BD6D0D1560AFE7C16841F0F9
:100770002001C160EDE72DE9F05F05460068002427
:100780004669D0F804908768D0F80CB0D0F810A073
:10079000D0F81880F10748D0F90714D00121816002
:1007A000B80703D5284600F007FA0CE0780702D511
:1007B0004FF4006407E0380702D54FF4805402E09C
:1007C000284600F0F8F9F80516D529684FF480702E
:1007D0008860B80503D5284600F0F0F90CE07805EC
:1007E00002D544F4005407E0380502D544F48044AF
:1007F00002E0284600F0E1F9F80316D529684FF425
:1008000080308860B80303D5284600F0D9F90CE0A1
:10081000780302D544F4004407E0380302D544F4D9
:10082000803402E0284600F0CAF9300707D55FEAB5
:10083000CB6004D52968102044F40074C8607007A8
:100840004FF0080707D55FEA0B7004D52868C7602A
:10085000284600F061F9B00706D52868C06880070F
:1008600002D0284600F05AF9700607D55FEACA6040
:1008700004D52968102044F480640861B00607D5C7
:100880005FEA0A7004D528680761284600F090F9ED
:10089000F00606D528680069800702D0284600F0D7
:1008A00088F9B00308D55FEAC96005D5296810202A
:1008B0004860284600F07EF9F00307D55FEA09702A
:1008C00004D528684760284600F07BF9300446D5F7
:1008D0005FEA497040D5F00504D55FEAC87001D0E1
:1008E00044F00104B00504D55FEA887001D544F0F6
:1008F0000204700504D55FEA487001D544F0040491
:10090000300529D518F0700F26D008F07000402867
:1009100015D006DC102809D020280AD0302816D19E
:100920000AE050280ED0602811D10EE044F00804EF
:100930000DE044F010040AE044F0200407E044F025
:10094000400404E044F0800401E044F4807428682A
:10095000816921F070018161296804204860002CC0
:1009600005D0686A204368622846FFF78FFEBDE81D
:10097000F09F70B5040003D094F8200010B104E09B
:10098000012070BD204600F081F82068016821F048
:100990000201016000F062FB0546052604E000F05C
:1009A0005DFB401B0A2811D8206840688007F6D4F8
:1009B0002068016841F00101016000F04FFB05462D
:1009C0000BE000F04BFB401B0A2806D9606A40F49C
:1009D0000030606284F82060D2E720684068C00779
:1009E000EFD0207E0128206801683DD021F08001F1
:1009F0000160607E01282068016838D021F0400144
:100A00000160A07E01282068016833D021F0200118
:100A10000160E07E0128206801682ED041F01001BD
:100A20000160207F01282068016829D021F0080199
:100A30000160607F01282068016824D021F0040152
:100A40000160D4E902010843D4E9041211430843C8
:100A50006168491E08432168C86100206062012066
:100A600084F82000002070BD41F08001C0E741F013
:100A70004001C5E741F02001CAE721F01001CFE7AE
:100A800041F00801D4E741F00401D9E710B586B080
:100A9000044614216846FFF7CBFB1C4920688842B6
:100AA00031D11B480021026842F0007202600068E8
:100AB00000F00070059016481038026842F00102FC
:100AC0000260006800F0010005904FF4C0500090F3
:100AD0000220CDE90101032003900920049069461A
:100AE0000C4800F0DFF900220521132000F048FB3C
:100AF000132000F037FB00220521142000F040FBFA
:100B0000142000F02FFB06B010BD00000064004070
:100B100040380240000002407047000030B5214AD2
:100B20000168214C89B0914207D16B4602AA00218D
:100B3000FFF7ADFDA088401CA08002980025A0F220
:100B40000120082827D2DFE800F004070726262620
:100B500019192570154808E00298801EC0B260700F
:100B600000EB40011148603810E0C16A4A1C32298C
:100B7000C26269460DD8FFF747FC0CE00298C01F1F
:100B8000C0B2A07000EB40010848303000EB01100B
:100B9000EBE7FFF709FCA088B0F5FA7F00D1A5804C
:100BA00009B030BD006400400000002004010020B6
:100BB000704770477047704770477047704770477D
:100BC0007047704790F83510022903D080214165A5
:100BD00001207047052180F835100068016821F078
:100BE00001010160002070472DE9F84304464FF0F1
:100BF0000009CDF8009063484FF41651A56D0068C8
:100C0000B0FBF1F72E6894F85C10082000FA01F1AF
:100C100031420FD021680A6852070BD50A6822F0CA
:100C200004020A6094F85C108840A860606D40F08F
:100C30000100606594F85C104FF0010808FA01F0BB
:100C4000304208D021684969090604D5A860606D62
:100C500040F00200606594F85C1004208840304247
:100C600008D021680968890704D5A860606D40F044
:100C70000400606594F85C1010208840304218D061
:100C800021680968090714D5A8602068016849032C
:100C900004D50068000308D5A16C07E00168C90508
:100CA00003D4016821F008010160216C09B12046DC
:100CB000884794F85C1020208840304231D0216869
:100CC0000968C9062DD5A86094F835000528206864
:100CD000016806D0490347D5006800031DD4616C44
:100CE0001CE021F0160101602068416921F08001BB
:100CF0004161206C08B9A06C20B12068016821F026
:100D00000801016094F85C103F208840A86084F8D6
:100D1000349084F83580216D1FE0E16B09B12046E5
:100D20008847606D00282BD0606DC00714D0052067
:100D300084F835002068016821F001010160009805
:100D4000401C0090B84203D820680068C007F6D164
:100D500084F8349084F83580E16C002910D001B01B
:100D60002046BDE8F04308470168C905D5D40168AD
:100D700021F01001016084F8349084F83580CCE7CC
:100D8000BDE8F883280000202DE9F041044600F07A
:100D900065F906465CB1002584F83450022084F8D9
:100DA00035002068016821F0010101600DE001209B
:100DB000BDE8F08100F052F9801B052805D92020FC
:100DC0006065032084F83500F2E720680068C007FA
:100DD000F0D12268116820480140D4E9010318438A
:100DE000D4E903363343184363691843A3691843AE
:100DF000E3691843236A18430843616A042903D14D
:100E0000D4E90B1319430843106020684069666AEF
:100E100020F0070130460E43012704280CD1A06AB8
:100E20000643E06A40B12046FFF77EFA20B1402039
:100E3000606584F83570BAE7206846612046FFF7A0
:100E40005FFA94F85C203F2191408160656584F8E9
:100E500035700020ACE700003F8010F070B504460C
:100E600090F83400002501280CD0012084F83400CB
:100E700094F835600020012E06D084F83400022555
:100E8000284670BD022070BD022684F8356060657A
:100E90002046FFF773FA2068016841F00101016004
:100EA000EEE700002DE9F84F00224FF0010803257E
:100EB0004FF00F0E0B6808FA02F42340A3426ED1E4
:100EC0004E68012E05D0022E03D0112E01D0122E15
:100ED00012D186684FEA420C05FA0CF7BE43CF6880
:100EE00007FA0CF7374387604668A6430C79C4F3CA
:100EF0000014944034434460C668570005FA07FC68
:100F00008C6826EA0C06BC403443C4604C68022C52
:100F100001D0122C13D1D40800EB8404A346D4F8DA
:100F2000209054074FEAD46A0EFA0AF629EA060915
:100F30000E6906FA0AF646EA0906CBF8206006684A
:100F40000C7926EA0C0604F00304BC403443046028
:100F50004C68E40065D5364C266846F48046266029
:100F6000246822F0030604F480440094314C344495
:100F7000A446D4F808489607370F0EFA07F6B4438C
:100F80002D4EB04201D1002624E02C4EB04201D1BA
:100F900001261FE02A4EB04202D102261AE040E0AC
:100FA000284EB04201D1032614E0274EB04201D1B1
:100FB00004260FE0254EB04201D105260AE0244E5A
:100FC000B04201D1062605E0224EB04201D10726EB
:100FD00000E00826BE402643CCF808681E4E346860
:100FE0004F689C43FF0300D51C4334601A4C241DFA
:100FF00026684F689E43BF0300D51E432660164EE9
:10100000083634684F689C43FF0200D51C433460A7
:10101000114E0C3634684F689C43BF0200D51C4308
:101020003460521C102AFFF445AFBDE8F88F000071
:1010300044380240003001400000024000040240F9
:1010400000080240000C0240001002400014024060
:1010500000180240001C0240003C0140014880682A
:10106000704700001C00002002488168027811448B
:10107000816070471C0000200B4810B5016841F4E6
:1010800000710160016841F480610160016841F410
:1010900080710160032000F093F8002000F006F852
:1010A00000F03EF8002010BD003C024010B50146A3
:1010B00088B00022362000F063F8362000F052F8A5
:1010C00013480024016841F010010160006805A97F
:1010D00000F010000690684600F01EF900F03CF9A0
:1010E0000C494000B0FBF1F10C480B4A491E02606C
:1010F00040F2E732C0E90324C0E9011400F074FBB8
:1011000010B1012008B010BD044800F0CFFBF9E792
:101110004038024040420F0000100040FC0900200F
:101120000F4808B5016841F480410160006800F48F
:10113000804000900A48001F016841F08051016022
:101140000068002200F0805000900F21101F00F076
:1011500017F800220F21BDE80840901E00F010B8DB
:1011600044380240002809DB00F01F0201219140B1
:101170004009800000F1E020C0F800117047000035
:10118000F0B40E4B1B680C46C3F30223C3F10705F2
:10119000042D00D90425191D072901D2002300E0E0
:1011A000DB1E012606FA05F1491E214099409E40AA
:1011B000761E16403143F0BC01F015BD0CED00E089
:1011C000064900F0070208684FF6FF03184040EA9E
:1011D0000220034A10430860704700000CED00E055
:1011E0000000FA052DE9F0470E46050065D0DFF84E
:1011F0001481D8F80000F7B200F00F00B04207D217
:1012000088F80070D8F8000000F00F00B04254D108
:1012100028683D4C810712D5400703D5206840F46B
:10122000E05020602878000703D5206840F4604033
:1012300020602068A96820F0F0000843206028782A
:10124000C0072DD0304968680839012812D002281B
:1012500013D0032811D00968890700292DDA2168E5
:1012600021F0030101432160FFF7F8FE814641F2BE
:10127000883A0EE009688903EFE709688901ECE71D
:10128000FFF7ECFEA0EB0901514502D90320BDE8B0
:10129000F0872068696800F00C00B0EB810FEFD197
:1012A000D8F80010404601F00F01B14207D907708D
:1012B000006800F00F00B04201D00120E7E7287875
:1012C000400705D52068E96820F4E0500843206015
:1012D0002878000706D52068296920F4604040EA94
:1012E000C100206000F058F82168084AC1F30311DA
:1012F000515CC8400649086006480068FFF7D6FE02
:101300000020C4E7003C0240083802408E2E00084E
:1013100028000020200000200F2202600C4A1368E1
:1013200003F003034360136803F0F0038360136862
:1013300003F4E053C36012684FF4E05303EAD202AF
:1013400002610448006800F00F0008607047000068
:1013500008380240003C024004480549006809681A
:10136000044AC1F38221515CC84070472800002024
:10137000083802409E2E00080448054900680968A4
:10138000044AC1F34231515CC84070472800002034
:10139000083802409E2E0008154810B5006810F06D
:1013A0000C02144813D04110042A0FD0082A0ED181
:1013B0000F4C241F2268236802F03F025B0207D50E
:1013C0002068C0F38810A0FB010106E0084610BDAC
:1013D0002168C1F38811A1FB00010023FEF7F0FE94
:1013E0002168C1F30141491C4900B0FBF1F010BD77
:1013F000083802400024F4002DE9F84F040076D0AC
:101400002078DFF838A3CE4DC00749D0DAF80010B5
:101410005046C1F38101012908D00068C0F3810062
:1014200002280AD1281D0068400206D528688003DA
:1014300036D560680028E2D032E06068B0F5803FC1
:1014400010D0B0F5A02F286810D020F4803028608C
:10145000286820F4802028606068A0B1FFF7FEFDB6
:1014600006460CE0286840F48030F4E740F4802021
:101470002860F7E7FFF7F2FD801B642873D828681F
:101480008003F7D50CE0FFF7E9FD064605E000BF55
:10149000FFF7E4FD801B6428F0D828688003F7D4A8
:1014A0002078DFF8A08280074FF000093ED5DAF8F7
:1014B0000010504611F00C0F09D00068C0F38100F5
:1014C00002280BD19D48001F0068400206D42868FE
:1014D000800715D5E068012809D111E0E068B8B1AE
:1014E0000120C8F80000FFF7B9FD064605E020E13D
:1014F000FFF7B4FD801B0228C0D828688007F7D505
:101500002868216920F0F80040EAC10028600DE059
:10151000C8F80090FFF7A2FD064604E0FFF79EFD25
:10152000801B02281FD828688007F7D4207800077E
:1015300022D5824E844861696C3671B10121016007
:10154000FFF78CFD074604E0FFF788FDC01B02286B
:1015500009D830688007F7D50EE0C0F80090FFF793
:101560007DFD074605E082E0FFF778FDC01B0228FD
:101570007DD830688007F7D42078400768D5DFF839
:10158000BCB100270BF1380BDBF80000C0000BD416
:10159000DBF8001041F08051CBF80010DBF80000C0
:1015A000012700F080500090684E3068C00510D4CC
:1015B000306840F480703060FFF750FD009005E027
:1015C000FFF74CFD0099401A022850D83068C0053A
:1015D000F6D55A4EA068683601280FD00528306825
:1015E00010D020F001003060306820F0040030603E
:1015F000A068B8B1FFF732FD00900FE0306840F00E
:101600000100F4E740F004003060F7E7FFF726FD43
:101610000099411A41F28830814266D830688007CB
:10162000F4D50EE0FFF71AFD009007E0FFF716FD76
:101630000099411A41F28830814256D830688007BB
:10164000F4D42FB1DBF8001021F08051CBF800105A
:10165000A069D0B3DAF800205146C2F38102022A11
:101660004AD00228484607D0C8F8600000E03CE0B5
:10167000FFF7F4FC04463BE04746C8F86000FFF77C
:10168000EDFC064605E000BFFFF7E8FC801B0228E2
:101690002BD828688001F7D4D4E907010843A16A50
:1016A0002B4A490802EB0141626A41EA8211084370
:1016B00094F82C1040EA01612048001F01600120CD
:1016C0003866FFF7CBFC044605E034E0FFF7C6FCC4
:1016D000001B022809D828688001F7D52BE000BF3D
:1016E000FFF7BCFC001B022802D90320BDE8F88FDD
:1016F00028688001F4D41EE00128F7D00868E26968
:1017000000F48001914214D1226A00F03F0191421D
:101710000FD147F6C071626A0140914209D1A26AB5
:1017200000F44031914204D1E16A00F070608842D7
:1017300001D00120DAE70020D8E700000838024095
:101740000038024000004742800E474200700040CF
:101750000000FFFF7047704770B590F83C20012AE9
:1017600032D0012480F83C40022280F83D200368FA
:101770005A689D6822F070060A6832435A60134B1B
:1017800002689A4214D0B2F1804F11D0104B9A42A5
:101790000ED0104B9A420BD00F4B9A4208D00F4BF1
:1017A0009A4205D00E4B9A4202D00E4B9A4204D177
:1017B000496825F080031943916080F83D4000217D
:1017C00080F83C10084670BD022070BD000001404A
:1017D0000004004000080040000C004000040140EC
:1017E000004001400018004010B5040003D094F8F8
:1017F0003D0010B107E0012010BD002084F83C003E
:10180000204600F00DF8022084F83D00211D2068DC
:1018100000F016FF012084F83D00002010BD0000FC
:1018200008B51E4A01681E4891420ED1016841F078
:10183000020101600068002200F002000090052112
:101840001D20FFF79DFC1D2022E0164A91420ED17B
:10185000016841F0040101600068002200F004000A
:10186000009005211E20FFF78BFC1E2010E00E4A81
:10187000914211D1016841F020010160006800220D
:1018800000F02000009005213720FFF779FC372079
:10189000BDE80840FFF766BC08BD0000000400403A
:1018A0004038024000080040001400400168CA6847
:1018B00042F00102CA600068816801F00701062950
:1018C00003D0016841F0010101600020704770B54C
:1018D000044690F83C00012817D0012584F83C50BC
:1018E000022084F83D002068826822F0770222F40A
:1018F0007F4282600868502830D00DDC20284DD00F
:1019000005DC98B310283BD148E0022070BD302898
:1019100044D0402834D139E0602828D0702806D03F
:10192000B0F5805F2CD0B0F5005F29D10AE0CB681C
:10193000D1E90121206800F0E7FE2068816841F0CC
:10194000770109E0CB68D1E90121206800F0DCFED5
:101950002068816841F48041816011E0CA6849686B
:10196000206800F0A5FF5021206807E016E0CA6853
:101970004968206800F0ADFF6021206800F0CEFECD
:1019800084F83D50002084F83C0070BDCA68496866
:10199000206800F08DFF40212068EFE722680146B3
:1019A0001046EBE7704770B50446006801694FF0D8
:1019B0000005C943890715D4C168C943890711D4F3
:1019C000E91E016101202077206880698007204698
:1019D00002D0FFF7E7FF04E000F0C2F8204600F075
:1019E00044F9257720680169C943490717D4C168BC
:1019F000C943490713D46FF0040101610220207725
:101A00002068806910F4407F204602D0FFF7CAFFAB
:101A100004E000F0A5F8204600F027F925772068BB
:101A20000169C943090716D4C168C943090712D41B
:101A30006FF008010161042020772068C0698007E9
:101A4000204602D0FFF7AEFF04E000F089F8204600
:101A500000F00BF9257720680169C943C90617D43E
:101A6000C168C943C90613D46FF010010161082091
:101A700020772068C06910F4407F204602D0FFF72D
:101A800091FF04E000F06CF8204600F0EEF82577B6
:101A900020680169C943C90708D1C168C943C9079A
:101AA00004D1891E0161204600F0E0F82068016938
:101AB000C943090609D4C168C943090605D46FF0B2
:101AC000800101612046FFF745FE20680169C94396
:101AD000490609D4C168C943490605D46FF04001DD
:101AE0000161204600F0CCF820680169C9438906ED
:101AF0000BD4C168C943890607D46FF02001016186
:101B00002046BDE87040FFF726BE70BD10B586B018
:101B1000044614216846FEF78BFB0E492068884274
:101B200015D10D480021026842F0080202600068E9
:101B300000F0080005904FF4405000900220CDE9DD
:101B40000101CDE9031069460448FFF7ABF906B07F
:101B500010BD00000008004030380240000C024078
:101B6000704770B5044690F83C000D4601280DD032
:101B7000012684F83C60022084F83D0042B1042A2A
:101B800018D0082A2AD00C2A4DD139E0022070BD85
:101B9000206800F0CBFD2068816941F00801816177
:101BA0002068816921F004018161206881692A69C6
:101BB000114311E0206800F0E9FD2068816941F4DB
:101BC000006181612068816921F480618161206800
:101BD00081692A6941EA0221816124E0206800F0DC
:101BE0000BFE2068C16941F00801C1612068C1692C
:101BF00021F00401C1612068C1692A69114311E023
:101C0000206800F02DFE2068C16941F40061C161C7
:101C10002068C16921F48061C1612068C1692A69B5
:101C200041EA0221C16184F83D60002084F83C0053
:101C300070BD10B5040003D094F83D0010B107E06A
:101C4000012010BD002084F83C00204600F00CF874
:101C5000022084F83D00211D206800F0F1FC0120E5
:101C600084F83D00002010BD7047704700680349AC
:101C7000884201D1FFF7F8B970470000001000401A
:101C80007047704770B5026804461068D1685369A0
:101C900010F00F0F53D003F0010501F490762E439E
:101CA0005FD0C20705D0CA0503D5E26B42F001023E
:101CB000E263420705D5DA0703D0E26B42F0020285
:101CC000E263820705D5DA0703D0E26B42F0040233
:101CD000E263020707D501F020022A4303D0E26B3A
:101CE00042F00802E263E26B002A34D0800604D599
:101CF000880602D5204600F057FE20684069E16B57
:101D0000C0F3801001F008010143204624D000F008
:101D100001FE2068416949061AD5416921F0400158
:101D20004161606BA0B11B490165606BFEF74AFF22
:101D3000002810D0606B016DBDE870400847830635
:101D40000FD58B060DD52046BDE8704000F02CBEA7
:101D50002046FFF796FF70BDFFF793FF0020E0637A
:101D600070BD030606D50B0604D52046BDE87040BD
:101D700000F0FABE4006F3D54806F1D5D1682046FA
:101D800021F04001D160202184F8391000F08CF955
:101D900070BD00000529000870B5040004D094F857
:101DA0003900002510B106E0012070BD84F83850DC
:101DB000204600F023F8242084F839002068C16808
:101DC00021F40051C160204600F03AFE206801690C
:101DD00021F4904101612068416921F02A014161AB
:101DE0002068C16841F40051C160E563202084F897
:101DF000390084F83A00002070BD00002DE9F04F52
:101E000087B0054614216846FEF712FA97489749AD
:101E1000DFF854821038D5F800C0022203230024D2
:101E20004E0507154FF00109C44572D1D1F800C025
:101E3000A0464CF4801CC1F800C0096801F4801170
:101E40000591016841F004010160016801F004019D
:101E50000591016841F00801016000689A4600F0B0
:101E600008000590D002009001AA02204FF0080B54
:101E700082E8010E69467E48FFF714F804200090BE
:101E800001AA022082E8010E69467A48FFF70AF8A3
:101E9000DFF8E89178494846C9F80010C0E90164C4
:101EA000C0E90347C9F81440C9F81840C9F81C40F4
:101EB000C9F82040C9F82440FEF766FF08B1FEF7D4
:101EC00072FA6E4C6C48C5F834906034A830C9F88A
:101ED0003850C4E900064020A060C4E90387C4F874
:101EE0001480C4F81880C4F81C80C4F820802046F0
:101EF000C4F82480FEF748FF08B1FEF754FA2C63BB
:101F0000002205213520A563FFF73AF9352047E087
:101F1000FFE7DFF86C814FF0070AC44545D1D1F8DF
:101F200000C04CF4003CC1F800C0096801F4003165
:101F30000591016841F0010101600068694600F007
:101F4000010005900C208DE80502CDE9033A4D48CB
:101F5000FEF7A8FFDFF82481474908F1C00878316F
:101F60004046C8F80010C0E90164C0E90347C8F85A
:101F70001440C8F81840C8F81C40C8F82040C8F8F9
:101F80002440FEF701FF08B1FEF70DFAC5F83480D2
:101F9000002205212620C8F83850FFF7F1F8262046
:101FA000FFF7E0F807B0BDE8F08FDFF8DC80C4454C
:101FB000F8D1D1F800C04CF4802CC1F800C00968F9
:101FC00001F480210591016841F00201016000687F
:101FD000694600F0020005904FF440608DE805026C
:101FE000CDE9033A2948FEF75DFF2349DFF8A080D9
:101FF00018314046C8F80010C0E90164C0E9034741
:10200000C8F81440C8F81840C8F81C40C8F8204068
:10201000B946C8F82440FEF7B7FE08B1FEF7C3F989
:102020001B4F1548C5F8348060374830C8F8385021
:10203000E7E802064020A7E81102154847F81449CE
:102040006030BC61FC613C627C62FEF79DFE08B1C1
:10205000FEF7A9F92F63002205212720BD63FFF7B2
:102060008FF827209CE700000050004040380240D5
:1020700000080240000C0240106002401C080020D2
:1020800000440040000002400048004000040240BC
:102090003C09002030B40368DC6844F01004DC60C4
:1020A00030BC00F045BC70477047FEE7104810B5E3
:1020B0000E4901600321416000214FF4002281603C
:1020C000C0E903124FF440124261017601224276C8
:1020D0008176C17601774177FEF74BFC002803D06B
:1020E000BDE81040FEF75FB910BD0000006400407D
:1020F00074060020194808B5016841F40011016018
:102100000068002200F40010009005210B20FFF76A
:1021100037F80B20FFF726F8002205210C20FFF7E7
:102120002FF80C20FFF71EF8002205210E20FFF7E4
:1021300027F80E20FFF716F8002205211020FFF7E0
:102140001FF81020FFF70EF8002205212F20FFF7BF
:1021500017F8BDE808402F20FFF704B830380240D8
:10216000154808B5016841F080010160016801F07F
:1021700080010091016841F001010160016801F0F6
:1021800001010091016841F002010160016801F064
:1021900002010091016841F008010160016801F04D
:1021A00008010091016841F004010160006800F03D
:1021B0000400009008BD00003038024010B586B021
:1021C0000024174800940194029403940494134942
:1021D000059401605321C0E9011440F2E731C0E9E0
:1021E00003148461FFF700FB08B1FEF7DCF84FF43D
:1021F0008050009069460A48FFF769FB08B1FEF776
:10220000D2F8049404A906480594FFF7A5FA00281B
:1022100001D0FEF7C8F806B010BD00000004004071
:102220009C06002010B58EB00024079408940994F1
:102230000A940B941C2168460C94FDF7F9FF24487E
:10224000224901605321C0E9011444F61F61C0E92D
:1022500003148461FFF7C8FA08B1FEF7A4F84FF43D
:102260008050079007A91A48FFF731FB08B1FEF725
:102270009AF81748FFF7DDFC08B1FEF794F80B94C5
:102280000BA913480C94FFF767FA08B1FEF78BF817
:102290006020CDE900040294002269460C480494B1
:1022A000FFF75FFC08B1FEF77EF84FF47A5001901B
:1022B000042269460648FFF754FC08B1FEF773F89C
:1022C0000348FFF723FC0EB010BD000000080040DB
:1022D000DC0600201CB500240F4800940D49019431
:1022E000016042F2D001C0E901144FF47A718461B7
:1022F000C160FFF779FA08B1FEF755F80094694616
:1023000005480194FFF728FA002801D0FEF74BF8A2
:102310001CBD0000001400401C0700200C4810B534
:102320000A4901604FF4E1314160002181600C22D3
:10233000C160C0E904128161C161FFF72DFD002871
:1023400003D0BDE81040FEF72EB810BD005000408D
:102350005C0700200D4810B50B4901600C49416035
:1023600000214FF480628160C0E903120C22C0E9B1
:102370000521C161FFF710FD002803D0BDE8104022
:10238000FEF711B810BD0000004400409C0700207B
:10239000A08601000C4810B50A4901604FF4E131F4
:1023A0004160002181600C22C160C0E9041281619A
:1023B000C161FFF7F1FC002803D0BDE81040FDF734
:1023C000F2BF10BD00480040DC070020FEE7704768
:1023D00030B4024C446630BC00F04EBD792E00088B
:1023E00010B50E4C2421A06990FBF1F000EE100A0C
:1023F0000B48B8EEC00AD0ED010A0A4800F05AFCBA
:102400000948D0ED0F0AB4F90000BDE8104000EE15
:10241000100A0448B8EEC00A00F04CBC04010020C9
:1024200010000020A4050020340300201048427A48
:102430001048032A816890ED010A0FD00023012A79
:1024400011D0022A09D1012907D1DFED0B0A00BF03
:1024500030EE200A80ED010A836070470029FCD12C
:102460000121816070470129FCD1DFED040AEFE70B
:102470002C00002010000020000000468FAAAA4473
:10248000884203DC4942884200DB0020704730B5B7
:1024900089B04FF400750C9C0295002504950595B4
:1024A000082506950D0A8DF800508DF80110110AC7
:1024B0008DF80210190A8DF804108DF80530210AE4
:1024C0008DF806108DF803208DF8074001236A4629
:1024D00002A9FEF777F809B030BD000070B59FED96
:1024E0001F1ADFED1F0AB2EE000A2DED028B6423E6
:1024F00041F2707203211B48FFF76AFF9FED1A8AB1
:102500004FF4FA7443F69825B7EE081AF0EE480A2D
:10251000B2EE080A23462A4603211248FFF758FF65
:10252000B7EE081AF0EE480AB2EE080A23462A4629
:1025300003210E48FFF74CFFF0EE480ABDEC028B7A
:1025400023462A46BDE8704008480321B7EE081A22
:10255000B2EE080A6830FFF73BBF00000000000041
:102560000AD7233C6C040020CDCCCC3DA405002030
:1025700030B593B030216846FDF75AFE14210CA8FF
:10258000FDF756FE19480025016841F080510160B1
:10259000006800F0805011901548016841F48041B6
:1025A00001600068022400F4804011900120009036
:1025B000000401908001CDE9064008AA0420A8216A
:1025C00082E813000B906846FEF716FF0CA90F2057
:1025D00081E831004FF4A0500F90E00210900521E7
:1025E0000CA8FEF7FFFD13B030BD000040380240DC
:1025F000007000400548016841F470010160034922
:102600004FF00060803908607047000088ED00E0FE
:102610000148FFF7C8B900009C0600200148FFF7F9
:10262000C2B90000DC0600200148FFF7BCB9000079
:10263000FC0900200148FFF7B6B900001C07002084
:10264000F0B50268254C264D264E274F274B4FF0FC
:10265000804CA04209D0604507D0A84205D0B042C6
:1026600003D0B84201D0984204D122F0700E4A68DB
:1026700042EA0E02A0421BD0604519D0A84217D0F2
:10268000B04215D0B84213D0984211D0184DA8428C
:102690000ED0184DA8420BD0174DA84208D0174DA8
:1026A000A84205D0164DA84202D0164DA84203D12B
:1026B00022F44075CA682A434D6922F080022A43F9
:1026C00002608A68C2620A688262A04201D09842AF
:1026D00001D10969016301214161F0BD00000140A0
:1026E0000004004000080040000C004000040140CD
:1026F00000400140004401400048014000180040F3
:10270000001C00400020004010B5846842EA03220B
:1027100024F47F440A432243826010BD826822F081
:1027200070020A4342F0070181607047F0B5026A07
:1027300022F001020262036A42688469124E24F0A8
:1027400073050C682C4323F002058B682B430D4D59
:10275000A84201D0B04205D123F00807CB683B4323
:1027600023F00403A84201D0B04205D14D6922F400
:10277000407215438A692A43426084614968416313
:102780000362F0BD0000014000040140F0B5026AA0
:1027900022F010020262026A436884690D6824F420
:1027A000E64444EA05248D6822F0200242EA05123C
:1027B0000F4D104EA84201D0B04206D1CF6822F092
:1027C000800242EA071222F04002A84201D0B04241
:1027D00007D14D6923F4406343EA85038D6943EAD9
:1027E000850343608461496881630262F0BD000033
:1027F0000000014000040140F0B5026A22F480723A
:102800000262026A4368C46922F4007224F073050C
:102810000C68124E2C438D6842EA05220E4DA842E8
:1028200001D0B04206D1CF6822F4006242EA07220A
:1028300022F48062A84201D0B04207D14D6923F44E
:10284000405343EA05138D6943EA05134360C461AD
:102850004968C1630262F0BD00000140000401400C
:1028600030B5026A22F480520262046A4268C36987
:102870000D6823F4E64343EA05238D6824F40054ED
:1028800044EA0534084DA84202D0084DA84204D1BC
:102890004D6922F4804242EA85124260C361496870
:1028A0000164046230BD00000000014000040140EA
:1028B00010B5036A046A24F001040462846924F0F8
:1028C000F00444EA021423F00A020A43846102621B
:1028D00010BD10B5036A23F0100303628369046A14
:1028E00023F4704343EA023224F0A00343EA0111C7
:1028F0008261016210BD00000148FFF7C3B900000A
:102900005C07002010B5806B0021C185C184FFF7F2
:10291000B8F910BD0168CA6822F49072CA600168F3
:102920004A6922F001024A61202180F83A1070477A
:10293000F8B5044690F83A00202833D179B372B341
:1029400094F8380001282DD0012084F83800A162C5
:10295000A2850025E563222084F83A00606B1346C7
:1029600005650846666B216802463046091DFEF77C
:1029700075FA206801684168009184F83850C16890
:1029800041F48071C1602068416941F001014161F9
:102990002068416941F0400141610020F8BDFFE736
:1029A0000120FBE70220F9E710B590F83A10222940
:1029B00001D0022010BD8168B1F5805F11D001699E
:1029C000002901681FD0496801F07F03816A4A1C11
:1029D00082620B70C18D491E0904090CC18518D093
:1029E0002BE00269816A002A0268526805D0D2B2DF
:1029F0000A80816A491C8162ECE7C2F308020A80FE
:102A0000816A891CF7E74A68816A4B1C83620A70F5
:102A1000E0E70168CA6822F02002CA600168CA685B
:102A200022F48072CA6001684A6922F001024A6198
:102A3000202180F83A10FFF736FB002010BD00007F
:102A40002DE9F041044600680169E26821F4405133
:102A5000114301612169A068E2690843616911437A
:102A600008432168CA6849F20C639A430243CA606A
:102A700020684169A26921F4407111434161E06914
:102A8000192764253226B0F5004F354A35492068AC
:102A90004FF0000806D0884201D0904236D1FEF7B0
:102AA0006BFC35E0884201D0904202D1FEF764FC15
:102AB00001E0FEF751FC61684A18A0FB070148EBF2
:102AC0000803FDF77DFB0146B0FBF5F00201B1FB09
:102AD000F5F06FF01803584301EB800006EBC000DF
:102AE000B0FBF5F000F0F80002EB4002B1FBF5F0AE
:102AF000584301EB800006EBC000B0FBF5F000F09E
:102B00000700216810448860BDE8F081FEF724FCCE
:102B100061688B0F8A00A0FB0701FDF751FB01469E
:102B2000B0FBF5F06FF01802504301EB800006EBAC
:102B30000010B0FBF5F000F0F002B1FBF5F002EB95
:102B40000012B1FBF5F06FF01803584301EB800061
:102B500006EB0010B0FBF5F000F00F00D1E700002D
:102B6000001401400010014090F83910212901D0D3
:102B7000022070478168B1F5805F016A0BD04A1C62
:102B80000262026809785160C18C491E0904090C6F
:102B9000C1840ED017E009880268C1F308015160B2
:102BA00001690029016A02D0491C0162ECE7891C15
:102BB000FBE70168CA6822F08002CA600068C16849
:102BC00041F04001C1600020704700000148FFF75C
:102BD00059B800009C0700200148FFF753B80000D7
:102BE000DC070020FEE70907090E002804DB00F1DE
:102BF000E02080F80014704700F00F0000F1E020A2
:102C000080F8141D704702E008C8121F08C1002A8E
:102C1000FAD170477047002001E001C1121F002A5D
:102C2000FBD17047D0ED000AF4EEC00AF1EE10FAC5
:102C300001DD80ED000AD0ED000AB1EE400AF4EEAD
:102C4000C00AF1EE10FA01D280ED000A70470000D0
:102C5000FEF712FAFFF78CFCFFF782FAFFF74AFA49
:102C6000FFF724FAFFF7AAFAFFF7DCFAFFF732FBC7
:102C7000FFF754FBFFF76EFBFFF78CFB64220B4959
:102C80000B48FFF707FAFDF74FFCFFF727FC00BFE3
:102C9000FDF71EFCFDF7BEFBFFF7C8FBFFF7A0FB2F
:102CA000FDF7FAFBFFF79CFBF2E700004000002075
:102CB0009C07002000B530EEC01A80ED080AC0ED78
:102CC000050A80ED0B1AD0ED141A01469FED692A12
:102CD00030EEC00AF5EEC01AB1EE400AF1EE10FA7D
:102CE0000ED0B5EEC01AF1EE10FA02DDF0EE410A98
:102CF00001E0F0EE400AF4EEE10AF1EE10FA12DC27
:102D0000D1ED150AF5EEC00AF1EE10FA0ED0B5EECF
:102D1000C01AF1EE10FA01DDB0EE410AB4EEE00A9D
:102D2000F1EE10FA02D2B0EE420A00BD886D01F158
:102D30003402032802D0042838D07AE091ED000A4A
:102D4000104620EE010A81ED0C0A91ED0D0AD1ED3D
:102D5000010A00EE810A81ED0D0A91ED0A0AD1ED1A
:102D6000020A31EE400A20EE200A81ED0E0A91EDB2
:102D7000180AB8EE400AFFF755FF91ED0C0AD1EDA5
:102D80000D0A01F13C0030EE200AD1ED0E0A30EEC2
:102D9000200A81ED0F0A91ED170AB8EE400AFFF7FD
:102DA00041FF91ED0F0A81ED100A42E091ED0A0A10
:102DB000D1ED001A104671EE400A60EEA10AC1ED95
:102DC0000C0AD1ED010A60EE810AC1ED0D0AF0EEA8
:102DD000000A00EE601A91ED090AD1ED020A31EE07
:102DE000000A20EE200A81ED0E0A91ED180AB8EED5
:102DF000400AFFF717FF91ED0C0AD1ED0D0A01F122
:102E0000480030EE200AD1ED0E0A30EE200A81EDA6
:102E1000110AD1ED130A30EE800A81ED120A91ED0C
:102E2000170AB8EE400AFFF7FDFE91ED120A81ED98
:102E3000130A91ED0A0A81ED090A91ED0B0A81ED61
:102E40000A0A91ED070A81ED060A91ED080A81ED63
:102E5000070A91ED040A81ED030A91ED050A81ED5F
:102E6000040A886D032802D091ED120A00BD91ED8D
:102E70000F0A00BD0000000000F1580C8CE80E00A5
:102E800080EC030A704700061016000610160000BA
:102E9000000000000000010203040607080900000A
:102EA0000000010203040000C82E000800000020FA
:102EB0002C000000062C0008F42E00082C00002036
:102EC000140E0000162C0008000000000000000096
:102ED00000000000460500000000000000000000A7
:102EE00000000000010000001000000000000000D1
:042EF0000024F400C6
:040000050800018965
:00000001FF
